:100000000C9428000C9432000C9432000C943200B2
:100010000C9432000C9432000C9432000C94320098
:100020000C9432000C9432000C9432000C94320088
:100030000C9432000C9432000C9432000C94320078
:100040000C9432000C9432000C9432000C94320068
:1000500011241FBECFEFD2E0DEBFCDBF0E9434001F
:100060000C9444000C940000219A299A92E085B1E6
:10007000892785B92FEF39E688E12150304080404B
:0C008000E1F700C00000F3CFF894FFCFC0
:00000001FF
